{
  "contractName": "LandRegistry",
  "abi": [
    {
      "anonymous": false,
      "inputs": [
        {
          "indexed": false,
          "internalType": "uint256",
          "name": "id",
          "type": "uint256"
        },
        {
          "indexed": false,
          "internalType": "string",
          "name": "name",
          "type": "string"
        },
        {
          "indexed": false,
          "internalType": "address",
          "name": "owner",
          "type": "address"
        }
      ],
      "name": "LandRegistered",
      "type": "event"
    },
    {
      "inputs": [],
      "name": "landCount",
      "outputs": [
        {
          "internalType": "uint256",
          "name": "",
          "type": "uint256"
        }
      ],
      "stateMutability": "view",
      "type": "function"
    },
    {
      "inputs": [
        {
          "internalType": "uint256",
          "name": "",
          "type": "uint256"
        }
      ],
      "name": "lands",
      "outputs": [
        {
          "internalType": "uint256",
          "name": "id",
          "type": "uint256"
        },
        {
          "internalType": "string",
          "name": "name",
          "type": "string"
        },
        {
          "internalType": "address",
          "name": "owner",
          "type": "address"
        }
      ],
      "stateMutability": "view",
      "type": "function"
    },
    {
      "inputs": [
        {
          "internalType": "string",
          "name": "_name",
          "type": "string"
        }
      ],
      "name": "registerLand",
      "outputs": [],
      "stateMutability": "nonpayable",
      "type": "function"
    },
    {
      "inputs": [
        {
          "internalType": "uint256",
          "name": "_id",
          "type": "uint256"
        }
      ],
      "name": "getLandOwner",
      "outputs": [
        {
          "internalType": "address",
          "name": "",
          "type": "address"
        }
      ],
      "stateMutability": "view",
      "type": "function"
    }
  ],
  "bytecode": "0x608060405234801561001057600080fd5b506107ca806100206000396000f3fe608060405234801561001057600080fd5b506004361061004c5760003560e01c80631869a38b14610051578063d7bce65814610081578063e261f1e51461009f578063fbed216b146100d1575b600080fd5b61006b60048036038101906100669190610475565b6100ed565b60405161007891906104f5565b60405180910390f35b61008961012c565b6040516100969190610510565b60405180910390f35b6100b960048036038101906100b49190610475565b610132565b6040516100c89392919061052b565b60405180910390f35b6100eb60048036038101906100e69190610434565b610204565b005b600080600083815260200190815260200160002060020160009054906101000a900473ffffffffffffffffffffffffffffffffffffffff169050919050565b60015481565b600060205280600052604060002060009150905080600001549080600101805461015b90610664565b80601f016020809104026020016040519081016040528092919081815260200182805461018790610664565b80156101d45780601f106101a9576101008083540402835291602001916101d4565b820191906000526020600020905b8154815290600101906020018083116101b757829003601f168201915b5050505050908060020160009054906101000a900473ffffffffffffffffffffffffffffffffffffffff16905083565b6001600081548092919061021790610696565b9190505550604051806060016040528060015481526020018281526020013373ffffffffffffffffffffffffffffffffffffffff168152506000806001548152602001908152602001600020600082015181600001556020820151816001019080519060200190610289929190610314565b5060408201518160020160006101000a81548173ffffffffffffffffffffffffffffffffffffffff021916908373ffffffffffffffffffffffffffffffffffffffff1602179055509050507f0a14f5ae2f9ee538270143056894f8128fb116c653fb2fde847dcebdd181622e60015482336040516103099392919061052b565b60405180910390a150565b82805461032090610664565b90600052602060002090601f0160209004810192826103425760008555610389565b82601f1061035b57805160ff1916838001178555610389565b82800160010185558215610389579182015b8281111561038857825182559160200191906001019061036d565b5b509050610396919061039a565b5090565b5b808211156103b357600081600090555060010161039b565b5090565b60006103ca6103c58461059a565b610569565b9050828152602081018484840111156103e257600080fd5b6103ed848285610622565b509392505050565b600082601f83011261040657600080fd5b81356104168482602086016103b7565b91505092915050565b60008135905061042e8161077d565b92915050565b60006020828403121561044657600080fd5b600082013567ffffffffffffffff81111561046057600080fd5b61046c848285016103f5565b91505092915050565b60006020828403121561048757600080fd5b60006104958482850161041f565b91505092915050565b6104a7816105e6565b82525050565b60006104b8826105ca565b6104c281856105d5565b93506104d2818560208601610631565b6104db8161076c565b840191505092915050565b6104ef81610618565b82525050565b600060208201905061050a600083018461049e565b92915050565b600060208201905061052560008301846104e6565b92915050565b600060608201905061054060008301866104e6565b818103602083015261055281856104ad565b9050610561604083018461049e565b949350505050565b6000604051905081810181811067ffffffffffffffff821117156105905761058f61073d565b5b8060405250919050565b600067ffffffffffffffff8211156105b5576105b461073d565b5b601f19601f8301169050602081019050919050565b600081519050919050565b600082825260208201905092915050565b60006105f1826105f8565b9050919050565b600073ffffffffffffffffffffffffffffffffffffffff82169050919050565b6000819050919050565b82818337600083830152505050565b60005b8381101561064f578082015181840152602081019050610634565b8381111561065e576000848401525b50505050565b6000600282049050600182168061067c57607f821691505b602082108114156106905761068f61070e565b5b50919050565b60006106a182610618565b91507fffffffffffffffffffffffffffffffffffffffffffffffffffffffffffffffff8214156106d4576106d36106df565b5b600182019050919050565b7f4e487b7100000000000000000000000000000000000000000000000000000000600052601160045260246000fd5b7f4e487b7100000000000000000000000000000000000000000000000000000000600052602260045260246000fd5b7f4e487b7100000000000000000000000000000000000000000000000000000000600052604160045260246000fd5b6000601f19601f8301169050919050565b61078681610618565b811461079157600080fd5b5056fea26469706673582212206b79918dc6ebdaf335bad33d9d866f829bafeaab9c3f1a7844034dfb19693c2564736f6c63430008000033",
  "immutableReferences": {},
  "source": "// // SPDX-License-Identifier: MIT\r\npragma solidity ^0.8.0;\r\n\r\ncontract LandRegistry {\r\n\r\n    struct Land {\r\n        uint256 id;\r\n        string name;\r\n        address owner;\r\n    }\r\n\r\n    mapping(uint256 => Land) public lands;\r\n    uint256 public landCount;\r\n\r\n    event LandRegistered(uint256 id, string name, address owner);\r\n\r\n    function registerLand(string memory _name) public {\r\n        landCount++;\r\n        lands[landCount] = Land(landCount, _name, msg.sender);\r\n\r\n        emit LandRegistered(landCount, _name, msg.sender);\r\n    }\r\n\r\n    function getLandOwner(uint256 _id) public view returns (address) {\r\n        return lands[_id].owner;\r\n    }\r\n}\r\n",
  "sourcePath": "C:\\Users\\Janhavi Chavada\\OneDrive\\Desktop\\D-APP 29J\\contracts\\LandRegistry.sol",
  "compiler": {
    "name": "solc",
    "version": "0.8.0+commit.c7dfd78e.Emscripten.clang"
  },
  "schemaVersion": "3.4.16",
  "updatedAt": "2025-02-03T11:38:37.399Z",
  "devdoc": {
    "kind": "dev",
    "methods": {},
    "version": 1
  },
  "userdoc": {
    "kind": "user",
    "methods": {},
    "version": 1
  }
}